{
  "contractName": "PQD",
  "abi": [
    {
      "anonymous": false,
      "inputs": [
        {
          "indexed": false,
          "name": "from",
          "type": "address"
        },
        {
          "indexed": false,
          "name": "to",
          "type": "address"
        },
        {
          "indexed": false,
          "name": "value",
          "type": "uint256"
        }
      ],
      "name": "Transfer",
      "type": "event"
    },
    {
      "anonymous": false,
      "inputs": [
        {
          "indexed": false,
          "name": "person",
          "type": "address"
        },
        {
          "indexed": false,
          "name": "amount",
          "type": "uint256"
        }
      ],
      "name": "Withdraw",
      "type": "event"
    },
    {
      "constant": false,
      "inputs": [],
      "name": "_PQD",
      "outputs": [],
      "payable": false,
      "stateMutability": "nonpayable",
      "type": "function"
    },
    {
      "constant": false,
      "inputs": [],
      "name": "supply",
      "outputs": [],
      "payable": false,
      "stateMutability": "nonpayable",
      "type": "function"
    },
    {
      "constant": false,
      "inputs": [
        {
          "name": "buyer",
          "type": "address"
        },
        {
          "name": "amount",
          "type": "uint256"
        }
      ],
      "name": "buyPQD",
      "outputs": [],
      "payable": false,
      "stateMutability": "nonpayable",
      "type": "function"
    },
    {
      "constant": true,
      "inputs": [
        {
          "name": "acc",
          "type": "address"
        }
      ],
      "name": "balance",
      "outputs": [
        {
          "name": "",
          "type": "uint256"
        }
      ],
      "payable": false,
      "stateMutability": "view",
      "type": "function"
    },
    {
      "constant": false,
      "inputs": [
        {
          "name": "_from",
          "type": "address"
        },
        {
          "name": "_to",
          "type": "address"
        },
        {
          "name": "value",
          "type": "uint256"
        }
      ],
      "name": "trader",
      "outputs": [],
      "payable": true,
      "stateMutability": "payable",
      "type": "function"
    },
    {
      "constant": false,
      "inputs": [
        {
          "name": "_owner",
          "type": "address"
        },
        {
          "name": "value",
          "type": "uint256"
        }
      ],
      "name": "withdraw",
      "outputs": [],
      "payable": true,
      "stateMutability": "payable",
      "type": "function"
    }
  ],
  "bytecode": "0x6060604052341561000f57600080fd5b6107c48061001e6000396000f300606060405260043610610078576000357c0100000000000000000000000000000000000000000000000000000000900463ffffffff168063047fc9aa1461007d5780637b88997414610092578063885e9a09146100e8578063c20ffb8e1461012a578063e3d670d71461013f578063f3fef3a31461018c575b600080fd5b341561008857600080fd5b6100906101c3565b005b6100e6600480803573ffffffffffffffffffffffffffffffffffffffff1690602001909190803573ffffffffffffffffffffffffffffffffffffffff16906020019091908035906020019091905050610214565b005b34156100f357600080fd5b610128600480803573ffffffffffffffffffffffffffffffffffffffff169060200190919080359060200190919050506103da565b005b341561013557600080fd5b61013d6105bf565b005b341561014a57600080fd5b610176600480803573ffffffffffffffffffffffffffffffffffffffff1690602001909190505061060a565b6040518082815260200191505060405180910390f35b6101c1600480803573ffffffffffffffffffffffffffffffffffffffff16906020019091908035906020019091905050610653565b005b600154600260003373ffffffffffffffffffffffffffffffffffffffff1673ffffffffffffffffffffffffffffffffffffffff16815260200190815260200160002060008282540192505081905550565b3373ffffffffffffffffffffffffffffffffffffffff168373ffffffffffffffffffffffffffffffffffffffff161415151561024f57600080fd5b80600260008573ffffffffffffffffffffffffffffffffffffffff1673ffffffffffffffffffffffffffffffffffffffff1681526020019081526020016000205411151561029c57600080fd5b80600260008573ffffffffffffffffffffffffffffffffffffffff1673ffffffffffffffffffffffffffffffffffffffff1681526020019081526020016000206000828254039250508190555080600260008473ffffffffffffffffffffffffffffffffffffffff1673ffffffffffffffffffffffffffffffffffffffff168152602001908152602001600020600082825401925050819055507fddf252ad1be2c89b69c2b068fc378daa952ba7f163c4a11628f55a4df523b3ef838383604051808473ffffffffffffffffffffffffffffffffffffffff1673ffffffffffffffffffffffffffffffffffffffff1681526020018373ffffffffffffffffffffffffffffffffffffffff1673ffffffffffffffffffffffffffffffffffffffff168152602001828152602001935050505060405180910390a1505050565b6000809054906101000a900473ffffffffffffffffffffffffffffffffffffffff1673ffffffffffffffffffffffffffffffffffffffff163373ffffffffffffffffffffffffffffffffffffffff1614151561043557600080fd5b80600260003373ffffffffffffffffffffffffffffffffffffffff1673ffffffffffffffffffffffffffffffffffffffff1681526020019081526020016000205411151561048257600080fd5b80600260008473ffffffffffffffffffffffffffffffffffffffff1673ffffffffffffffffffffffffffffffffffffffff1681526020019081526020016000206000828254019250508190555080600260003373ffffffffffffffffffffffffffffffffffffffff1673ffffffffffffffffffffffffffffffffffffffff168152602001908152602001600020600082825403925050819055507fddf252ad1be2c89b69c2b068fc378daa952ba7f163c4a11628f55a4df523b3ef338383604051808473ffffffffffffffffffffffffffffffffffffffff1673ffffffffffffffffffffffffffffffffffffffff1681526020018373ffffffffffffffffffffffffffffffffffffffff1673ffffffffffffffffffffffffffffffffffffffff168152602001828152602001935050505060405180910390a15050565b336000806101000a81548173ffffffffffffffffffffffffffffffffffffffff021916908373ffffffffffffffffffffffffffffffffffffffff160217905550611388600181905550565b6000600260008373ffffffffffffffffffffffffffffffffffffffff1673ffffffffffffffffffffffffffffffffffffffff168152602001908152602001600020549050919050565b3373ffffffffffffffffffffffffffffffffffffffff168273ffffffffffffffffffffffffffffffffffffffff161415151561068e57600080fd5b80600260008473ffffffffffffffffffffffffffffffffffffffff1673ffffffffffffffffffffffffffffffffffffffff16815260200190815260200160002054101515156106dc57600080fd5b80600260008473ffffffffffffffffffffffffffffffffffffffff1673ffffffffffffffffffffffffffffffffffffffff168152602001908152602001600020600082825403925050819055507f884edad9ce6fa2440d8a54cc123490eb96d2768479d49ff9c7366125a94243648282604051808373ffffffffffffffffffffffffffffffffffffffff1673ffffffffffffffffffffffffffffffffffffffff1681526020018281526020019250505060405180910390a150505600a165627a7a723058209d1ad1031c06b87f01d1eb497c9821e732b25250b85de59a85da7b54c921add50029",
  "source": "pragma solidity ^0.4.10;\r\ncontract PQD{\r\n    address owner;\r\n    uint totalSupply;\r\n    //create the mapping to check the balance\r\n    mapping(address=> uint) balanceOf;\r\n    //create the event to show data of transaction\r\n    event Transfer(address from, address to, uint value);\r\n    //create the event to withdraw\r\n    event Withdraw(address person, uint amount);\r\n    //create the object of provider\r\n    function _PQD() public{\r\n        owner=msg.sender;\r\n        totalSupply=5000;\r\n    }\r\n    //create the method to public token\r\n    function supply() public{\r\n        balanceOf[msg.sender]+=totalSupply;\r\n    }\r\n    //create the method to buy token\r\n    function buyPQD(address buyer, uint amount) public{\r\n        require(msg.sender==owner);\r\n        require(balanceOf[msg.sender]>amount);\r\n        balanceOf[buyer]+=amount;\r\n        balanceOf[msg.sender]-=amount;\r\n        Transfer(msg.sender,buyer,amount);\r\n    }\r\n    //create the method to check balance\r\n    function balance(address acc) public constant returns(uint){\r\n        return balanceOf[acc];\r\n    }\r\n    //create the method to trader the token\r\n    function trader(address _from, address _to, uint value) public payable{\r\n        require(_from!=msg.sender);\r\n        require(balanceOf[_from]>value);\r\n        balanceOf[_from]-=value;\r\n        balanceOf[_to]+=value;\r\n        Transfer(_from,_to,value);\r\n    }\r\n    //create the method to withdraw\r\n    function withdraw(address _owner, uint value) public payable{\r\n        require(_owner!=msg.sender);\r\n        require(balanceOf[_owner]>=value);\r\n        balanceOf[_owner]-=value;\r\n        Withdraw(_owner,value);\r\n    }\r\n}",
  "sourcePath": "D:\\PQD\\contracts\\PQD.sol",
  "compiler": {
    "name": "solc",
    "version": "0.4.19+commit.c4cbbb05.Emscripten.clang"
  },
  "schemaVersion": "2.0.0",
  "updatedAt": "2018-07-10T14:27:28.497Z"
}